{
  "contractName": "ImportArray",
  "abi": [
    {
      "constant": true,
      "inputs": [],
      "name": "ShwoStr",
      "outputs": [
        {
          "name": "",
          "type": "string"
        }
      ],
      "payable": false,
      "stateMutability": "view",
      "type": "function"
    },
    {
      "inputs": [],
      "payable": false,
      "stateMutability": "nonpayable",
      "type": "constructor"
    },
    {
      "constant": true,
      "inputs": [],
      "name": "MinElement",
      "outputs": [
        {
          "name": "",
          "type": "string"
        }
      ],
      "payable": false,
      "stateMutability": "view",
      "type": "function"
    }
  ],
  "bytecode": "0x608060405234801561001057600080fd5b506040805190810160405280601581526020017f7768792063616e742075736520696d706f7274203f00000000000000000000008152506000908051906020019061005c929190610141565b50600180908060018154018082558091505090600182039060005260206000200160009091929091909150555060016002908060018154018082558091505090600182039060005260206000200160009091929091909150555060016003908060018154018082558091505090600182039060005260206000200160009091929091909150555060016007908060018154018082558091505090600182039060005260206000200160009091929091909150555060018090806001815401808255809150509060018203906000526020600020016000909192909190915055506101e6565b828054600181600116156101000203166002900490600052602060002090601f016020900481019282601f1061018257805160ff19168380011785556101b0565b828001600101855582156101b0579182015b828111156101af578251825591602001919060010190610194565b5b5090506101bd91906101c1565b5090565b6101e391905b808211156101df5760008160009055506001016101c7565b5090565b90565b6103a4806101f56000396000f30060806040526004361061004c576000357c0100000000000000000000000000000000000000000000000000000000900463ffffffff16806301d04fcd14610051578063e37095eb146100e1575b600080fd5b34801561005d57600080fd5b50610066610171565b6040518080602001828103825283818151815260200191508051906020019080838360005b838110156100a657808201518184015260208101905061008b565b50505050905090810190601f1680156100d35780820380516001836020036101000a031916815260200191505b509250505060405180910390f35b3480156100ed57600080fd5b506100f6610231565b6040518080602001828103825283818151815260200191508051906020019080838360005b8381101561013657808201518184015260208101905061011b565b50505050905090810190601f1680156101635780820380516001836020036101000a031916815260200191505b509250505060405180910390f35b606061017b610231565b600390805190602001906101909291906102d3565b5060038054600181600116156101000203166002900480601f0160208091040260200160405190810160405280929190818152602001828054600181600116156101000203166002900480156102275780601f106101fc57610100808354040283529160200191610227565b820191906000526020600020905b81548152906001019060200180831161020a57829003601f168201915b5050505050905090565b606060008054600181600116156101000203166002900480601f0160208091040260200160405190810160405280929190818152602001828054600181600116156101000203166002900480156102c95780601f1061029e576101008083540402835291602001916102c9565b820191906000526020600020905b8154815290600101906020018083116102ac57829003601f168201915b5050505050905090565b828054600181600116156101000203166002900490600052602060002090601f016020900481019282601f1061031457805160ff1916838001178555610342565b82800160010185558215610342579182015b82811115610341578251825591602001919060010190610326565b5b50905061034f9190610353565b5090565b61037591905b80821115610371576000816000905550600101610359565b5090565b905600a165627a7a7230582048f6a99e68e0bc4ab2819ef7a5cc16e98ba66c60d7748563fe4a6ace3e0ec1630029",
  "source": "pragma solidity ^0.4.22;\nimport \"./Array.sol\";\nimport \"./ReturnStr.sol\";\n\n/** Array wraper\n* min() - returns minimal array element\n* max() - returns maximal array element\n* sum() - returns sum of all array elements\n* set(uint []) - set array\n* get() - returns stored array\n* sort() - sorts all array elements\n*/\n\ncontract ImportArray is ReturnStr {\n      uint [] UintArray;\n      uint Min;\n      string CallStr;\n\n  constructor() {\n      UintArray.push(1);\n      UintArray.push(2);\n      UintArray.push(3);\n      UintArray.push(7);\n      UintArray.push(1);\n\n  }\n\n  function MinElement () public view returns (string) {\n      //Min = min (UintArray);\n      //return Min;\n      CallStr = ShwoStr();\n      return CallStr;\n  }\n}\n",
  "sourcePath": "/Users/karenwang/Desktop/Ethereum/Solidity/Test/contracts/ImportArray.sol",
  "compiler": {
    "name": "solc",
    "version": "0.4.24+commit.e67f0147.Emscripten.clang"
  },
  "schemaVersion": "2.0.1",
  "updatedAt": "2018-09-07T02:38:17.831Z"
}