{
  "contractName": "UintArray",
  "abi": [
    {
      "inputs": [
        {
          "name": "_data",
          "type": "uint256[]"
        }
      ],
      "payable": false,
      "stateMutability": "nonpayable",
      "type": "constructor"
    },
    {
      "constant": true,
      "inputs": [],
      "name": "min",
      "outputs": [
        {
          "name": "",
          "type": "uint256"
        }
      ],
      "payable": false,
      "stateMutability": "view",
      "type": "function"
    },
    {
      "constant": true,
      "inputs": [],
      "name": "imin",
      "outputs": [
        {
          "name": "",
          "type": "uint256"
        }
      ],
      "payable": false,
      "stateMutability": "view",
      "type": "function"
    },
    {
      "constant": true,
      "inputs": [],
      "name": "max",
      "outputs": [
        {
          "name": "",
          "type": "uint256"
        }
      ],
      "payable": false,
      "stateMutability": "view",
      "type": "function"
    },
    {
      "constant": true,
      "inputs": [],
      "name": "imax",
      "outputs": [
        {
          "name": "",
          "type": "uint256"
        }
      ],
      "payable": false,
      "stateMutability": "view",
      "type": "function"
    },
    {
      "constant": true,
      "inputs": [],
      "name": "sum",
      "outputs": [
        {
          "name": "",
          "type": "uint256"
        }
      ],
      "payable": false,
      "stateMutability": "view",
      "type": "function"
    },
    {
      "constant": false,
      "inputs": [
        {
          "name": "_data",
          "type": "uint256[]"
        }
      ],
      "name": "set",
      "outputs": [],
      "payable": false,
      "stateMutability": "nonpayable",
      "type": "function"
    },
    {
      "constant": true,
      "inputs": [],
      "name": "get",
      "outputs": [
        {
          "name": "",
          "type": "uint256[]"
        }
      ],
      "payable": false,
      "stateMutability": "view",
      "type": "function"
    },
    {
      "constant": true,
      "inputs": [
        {
          "name": "i",
          "type": "uint256"
        }
      ],
      "name": "at",
      "outputs": [
        {
          "name": "",
          "type": "uint256"
        }
      ],
      "payable": false,
      "stateMutability": "view",
      "type": "function"
    },
    {
      "constant": false,
      "inputs": [],
      "name": "sort",
      "outputs": [],
      "payable": false,
      "stateMutability": "nonpayable",
      "type": "function"
    }
  ],
  "bytecode": "0x608060405234801561001057600080fd5b5060405161086538038061086583398101806040528101908080518201929190505050600081516040519080825280602002602001820160405280156100655781602001602082028038833980820191505090505b506000908051906020019061007b9291906100d3565b50600090505b81518110156100cc57818181518110151561009857fe5b906020019060200201516000828154811015156100b157fe5b90600052602060002001819055508080600101915050610081565b5050610145565b82805482825590600052602060002090810192821561010f579160200282015b8281111561010e5782518255916020019190600101906100f3565b5b50905061011c9190610120565b5090565b61014291905b8082111561013e576000816000905550600101610126565b5090565b90565b610711806101546000396000f300608060405260043610610099576000357c0100000000000000000000000000000000000000000000000000000000900463ffffffff16806316c8b3ef1461009e5780635ca3aa56146100c95780636ac5db19146100f45780636d4ce63c1461011f5780636ea9bfc51461018b578063853255cc146101f15780638cdc86a61461021c578063e0886f9014610233578063f889794514610274575b600080fd5b3480156100aa57600080fd5b506100b361029f565b6040518082815260200191505060405180910390f35b3480156100d557600080fd5b506100de610308565b6040518082815260200191505060405180910390f35b34801561010057600080fd5b50610109610371565b6040518082815260200191505060405180910390f35b34801561012b57600080fd5b506101346103f3565b6040518080602001828103825283818151815260200191508051906020019060200280838360005b8381101561017757808201518184015260208101905061015c565b505050509050019250505060405180910390f35b34801561019757600080fd5b506101ef6004803603810190808035906020019082018035906020019080806020026020016040519081016040528093929190818152602001838360200280828437820191505050505050919291929050505061044b565b005b3480156101fd57600080fd5b50610206610465565b6040518082815260200191505060405180910390f35b34801561022857600080fd5b506102316104ab565b005b34801561023f57600080fd5b5061025e600480360381019080803590602001909291905050506104db565b6040518082815260200191505060405180910390f35b34801561028057600080fd5b506102896104fd565b6040518082815260200191505060405180910390f35b60008060008091505b600080549050811015610300576000828154811015156102c457fe5b90600052602060002001546000828154811015156102de57fe5b906000526020600020015411156102f3578091505b80806001019150506102a8565b819250505090565b60008060008091505b6000805490508110156103695760008281548110151561032d57fe5b906000526020600020015460008281548110151561034757fe5b9060005260206000200154101561035c578091505b8080600101915050610311565b819250505090565b600080600080600081548110151561038557fe5b906000526020600020015491505b6000805490508110156103eb57816000828154811015156103b057fe5b906000526020600020015411156103de576000818154811015156103d057fe5b906000526020600020015491505b8080600101915050610393565b819250505090565b6060600080548060200260200160405190810160405280929190818152602001828054801561044157602002820191906000526020600020905b81548152602001906001019080831161042d575b5050505050905090565b8060009080519060200190610461929190610673565b5050565b60008060005b6000805490508110156104a35760008181548110151561048757fe5b906000526020600020015482019150808060010191505061046b565b819250505090565b60008090505b6001600080549050038110156104d8576104ca8161057f565b5080806001019150506104b1565b50565b600080828154811015156104eb57fe5b90600052602060002001549050919050565b600080600080600081548110151561051157fe5b906000526020600020015491505b600080549050811015610577578160008281548110151561053c57fe5b9060005260206000200154101561056a5760008181548110151561055c57fe5b906000526020600020015491505b808060010191505061051f565b819250505090565b6000806000808492508491505b6000805490508210156105e4576000838154811015156105a857fe5b90600052602060002001546000838154811015156105c257fe5b906000526020600020015410156105d7578192505b818060010192505061058c565b848314156105f5576000935061066b565b60008581548110151561060457fe5b9060005260206000200154905060008381548110151561062057fe5b906000526020600020015460008681548110151561063a57fe5b90600052602060002001819055508060008481548110151561065857fe5b9060005260206000200181905550600193505b505050919050565b8280548282559060005260206000209081019282156106af579160200282015b828111156106ae578251825591602001919060010190610693565b5b5090506106bc91906106c0565b5090565b6106e291905b808211156106de5760008160009055506001016106c6565b5090565b905600a165627a7a7230582096dbe165c140628a3d8a04efa9c81413a6ca6038740922eb61a664e1e9fb77870029",
  "source": "pragma solidity ^0.4.22;\n\n/*\n#    Copyright (C) 2017  alianse777\n\n#    This program is free software: you can redistribute it and/or modify\n#    it under the terms of the GNU General Public License as published by\n#    the Free Software Foundation, either version 3 of the License, or\n#    (at your option) any later version.\n#\n#    This program is distributed in the hope that it will be useful,\n#    but WITHOUT ANY WARRANTY; without even the implied warranty of\n#    MERCHANTABILITY or FITNESS FOR A PARTICULAR PURPOSE.  See the\n#    GNU General Public License for more details.\n#\n#    You should have received a copy of the GNU General Public License\n#    along with this program.  If not, see <http://www.gnu.org/licenses/>.\n*/\n\n/** Array wraper\n* min() - returns minimal array element\n* max() - returns maximal array element\n* sum() - returns sum of all array elements\n* set(uint []) - set array\n* get() - returns stored array\n* sort() - sorts all array elements\n*/\n\n\n//Uint Array\n\n\ncontract UintArray {\n    uint[] private data;\n    constructor (uint[] _data) public {\n        data = new uint[](_data.length);\n        for(uint i = 0;i < _data.length;i++) {\n            data[i] = _data[i];\n        }\n    }\n\n    /**\n     * @dev Returns minimal element in array\n     * @return uint\n     */\n    function min() public view returns (uint) {\n        uint minimal = data[0];\n        for(uint i;i < data.length;i++){\n            if(data[i] < minimal){\n                minimal = data[i];\n            }\n        }\n        return minimal;\n    }\n\n    /**\n     * @dev Returns minimal element's index\n     * @return uint\n     */\n    function imin() public view returns (uint) {\n        uint minimal = 0;\n        for(uint i;i < data.length;i++){\n            if(data[i] < data[minimal]){\n                minimal = i;\n            }\n        }\n        return minimal;\n    }\n\n    /**\n     * @dev Returns maximal element in array\n     * @return uint\n     */\n    function max() public view returns (uint) {\n        uint maximal = data[0];\n        for(uint i;i < data.length;i++){\n            if(data[i] > maximal){\n                maximal = data[i];\n            }\n        }\n        return maximal;\n    }\n\n    /**\n     * @dev Returns maximal element's index\n     * @return uint\n     */\n    function imax() public view returns (uint) {\n        uint maximal = 0;\n        for(uint i;i < data.length;i++){\n            if(data[i] > data[maximal]){\n                maximal = i;\n            }\n        }\n        return maximal;\n    }\n\n    /**\n     * @dev Compute sum of all elements\n     * @return uint\n     */\n    function sum() public view returns (uint) {\n        uint S;\n        for(uint i;i < data.length;i++){\n            S += data[i];\n        }\n        return S;\n    }\n\n    /**\n     * @dev assign new array pointer from _data\n     * @param _data is array to assign\n     */\n    function set(uint [] _data) public {\n        data = _data;\n    }\n\n    /**\n     * @dev Get the contents of array\n     * @return uint[]\n     */\n    function get() public view returns (uint[]) {\n        return data;\n    }\n\n    function at(uint i) public view returns (uint) {\n        return data[i];\n    }\n\n    function sort_item(uint pos) internal returns (bool) {\n        uint w_min = pos;\n        for(uint i = pos;i < data.length;i++) {\n            if(data[i] < data[w_min]) {\n                w_min = i;\n            }\n        }\n        if(w_min == pos) return false;\n        uint tmp = data[pos];\n        data[pos] = data[w_min];\n        data[w_min] = tmp;\n        return true;\n    }\n\n    /**\n     * @dev Sort the array\n     */\n    function sort() public {\n        for(uint i = 0;i < data.length-1;i++) {\n            sort_item(i);\n        }\n    }\n}\n\n\n// Int Array\n\n\ncontract IntArray {\n    int [] private data;\n    constructor (int [] _data) public {\n        data = _data;\n    }\n\n    /**\n     * @dev Returns minimal element in array\n     * @return int\n     */\n    function min() public view returns (int) {\n        int minimal = data[0];\n        for(uint i;i < data.length;i++){\n            if(data[i] < minimal){\n                minimal = data[i];\n            }\n        }\n        return minimal;\n    }\n\n    /**\n     * @dev Returns minimal element's index\n     * @return uint\n     */\n    function imin() public view returns (uint) {\n        uint minimal = 0;\n        for(uint i;i < data.length;i++){\n            if(data[i] < data[minimal]){\n                minimal = i;\n            }\n        }\n        return minimal;\n    }\n\n    /**\n     * @dev Returns maximal element in array\n     * @return int\n     */\n    function max() public view returns (int) {\n        int maximal = data[0];\n        for(uint i;i < data.length;i++) {\n            if(data[i] > maximal) {\n                maximal = data[i];\n            }\n        }\n        return maximal;\n    }\n\n    /**\n     * @dev Returns maximal element's index\n     * @return uint\n     */\n    function imax() public view returns (uint) {\n        uint maximal = 0;\n        for(uint i;i < data.length;i++){\n            if(data[i] > data[maximal]){\n                maximal = i;\n            }\n        }\n        return maximal;\n    }\n\n    /**\n     * @dev Compute sum of all elements\n     * @return int\n     */\n    function sum() public view returns (int) {\n        int S;\n        for(uint i;i < data.length;i++) {\n            S += data[i];\n        }\n        return S;\n    }\n\n    function set(int [] _data) public {\n        data = _data;\n    }\n\n    function get() public view returns (int []) {\n        return data;\n    }\n\n    function at(uint i) public view returns (int) {\n        return data[i];\n    }\n\n    function sort_item(uint pos) internal returns (bool) {\n        uint w_min = pos;\n        for(uint i = pos;i < data.length;i++) {\n            if(data[i] < data[w_min]) {\n                w_min = i;\n            }\n        }\n        if(w_min == pos) return false;\n        int tmp = data[pos];\n        data[pos] = data[w_min];\n        data[w_min] = tmp;\n        return true;\n    }\n\n    /**\n     * @dev Sort the array\n     */\n    function sort() public {\n        for(uint i = 0;i < data.length-1;i++) {\n            sort_item(i);\n        }\n    }\n}\n",
  "sourcePath": "/Users/karenwang/Desktop/Ethereum/Solidity/Test/contracts/Array.sol",
  "compiler": {
    "name": "solc",
    "version": "0.4.24+commit.e67f0147.Emscripten.clang"
  },
  "schemaVersion": "2.0.1",
  "updatedAt": "2018-09-07T02:35:47.234Z"
}